:020000040800F2
:20000000008001208D360008490D00084B0D00084D0D00084F0D0008510D0008000000008A
:20002000000000000000000000000000530D0008550D000800000000570D000885060008EF
:20004000D9360008D9360008D9360008D9360008D9360008D9360008D9360008D9360008E8
:20006000D9360008D9360008D9360008D9360008D9360008D9360008D9360008D9360008C8
:20008000D9360008D9360008D9360008D9360008D9360008D9360008D9360008D9360008A8
:2000A000D9360008D9360008D9360008D9360008D9360008D9360008D9360008D936000888
:2000C000D9360008D9360008D9360008D9360008D9360008D9360008D9360008D936000868
:2000E000D9360008D9360008D9360008D9360008D9360008D9360008D9360008D936000848
:20010000D9360008D9360008D9360008D9360008D9360008D9360008D9360008D936000827
:20012000D9360008D9360008D9360008D9360008D9360008D9360008D9360008D936000807
:20014000D9360008D9360008D93600088F0C0008D9360008D9360008D93600081D09000844
:20016000D9360008D9360008D9360008D9360008D9360008D9360008D9360008D9360008C7
:20018000D936000810B5054C237833B9044B13B10448AFF300800123237010BD7005002011
:2001A000000000002839000808B5064B1BB106480649AFF300800648036813B1054B03B1BC
:2001C000984708BD000000002839000874050020700500200000000000239A0002F1604292
:2001E000013302F561424FF0FF31082BC2F88010C2F88011F1D1002303F16042013302F554
:2002000061420021F02B82F80013F5D17047024B00221A70704700BF8C050020F7B5B74D25
:200220006B78022B02D100232B706B702E78B34C012E33D1637833BB6379277902201F44A0
:20024000E37A03371F44A37A1F44637A1F44237A1F4400F0AFFB304600F0ACFB207900F0B4
:20026000A9FB607900F0A6FBE07A00F0A3FBA07A00F0A0FB607A00F09DFBFFB2207A00F046
:2002800099FB38462AE0012B2AD100249C4B185D013400F08FFB092CF8D121E0022E1FD1CD
:2002A0000023012730466371A360277100F082FB384600F07FFB207900F07CFB607900F0F0
:2002C00079FBE07A00F076FBA07A00F073FB607A00F070FB207A00F06DFB042000F06AFBD7
:2002E0002A788648032A2AD14378DBB907794679C47A06763E44817A0336427A447634447A
:20030000037A817621444FF0020EC2760A4480F815E003774FF0010E134480F816E0C775F9
:2003200043770AE0012B08D10023764AA2F10901595C99540133092BF7D1724811E0042AE9
:2003400012D100230121022443710171836044758175C175037643768376C37603774277CA
:200360001530092100F098FC00232B706B70AB7F13B1624B0122DA770DF1070000F034FBBE
:200380000446002848D000F04DFB10B1002385F8203095F820109DF807004A1CD2B229443A
:2003A000092A564B85F8202081F821006DD1002283F8202093F82130012B66D111464F4BC7
:2003C00003F12100105C01320144082AC9B2F6D193F829208A421DD193F8222083F82C208E
:2003E00093F8232083F82D2093F8242083F82E2093F8252083F8332093F8262083F8322093
:2004000093F8272083F8312093F8282083F83020012239E0022237E0384E06F1340000F088
:2004200065FC90B396F83430012B2ED120462246324B03F13401415C01300A440828D2B2B7
:20044000F6D193F83C1091421DD193F8352083F82C2093F8362083F82D2093F8372083F890
:200460002E2093F8382083F8332093F8392083F8322093F83A2083F8312093F83B2083F8BA
:200480003020032200E004221A7028781B4B10F0FD0F00F0DF80042800F0DC8093F82C20A7
:2004A00064211971196BCB2A5A71996000F08A800AD8C82A45D002D8882A25D0C8E0C92AF1
:2004C00052D0CA2A5CD0C3E0CE2A00F095800DD8CC2A00F08380CD2A40F0BA8001220328BD
:2004E0009A7718BF0022C3F84424B3E0D02A00F09380F22A00F09E80AAE000BF8C0500201B
:2005000098050020A105002093F82D2072B90121597002211973504B186813464F4AC15C91
:200520001A440133082B5170F8D193E0012A40F091800021D9725A720B21022299721A726E
:2005400088E000F0DFFC0221102000F078FD0221182000F074FD0221202000F070FD022111
:20056000282000F06CFD75E093F82E0093F82D2002EB0022FF2A5AD803EB8203196469E051
:2005800001F17841364AA1F5004191420ED80024286B344B2044984203D8334BE15800F0AA
:2005A000D3FD0434B4F5806FF2D101E004221A7100232D4A4FF0FF3199500433B3F5806F86
:2005C000F7D147E0294A91420CDCD3F8402400238A420FD812F8010B0344F9E7D3F840347D
:2005E0008B4201D9042334E0214B9942FAD88B07F8D10B68AB602DE093F82D20012A07D040
:2006000003D3022A13D11B4A04E04FF4806201E0D3F840249A601DE093F82D201AB1012AB1
:2006200005D1124800E0144800F08EFD12E003221A710FE0DB6A114A23F07F4323F0FF03B8
:200640009342CFD10E4B9942CCD102236B7001E002232B7103B0F0BD000000209805002075
:20066000FB7F0300FBFF0308CC050020FCFF0308FFFF0308F8FB0300F8FF030800819200ED
:20068000D6C5B4A30E4B19781A4659B15B68013353600C4B196811B1196801391960002379
:2006A000137001E001221A70074B1A683AB11A68013A1A601B6813B9044B01221A70704731
:2006C000E8090020B40A0020B80A0020BC0A0020074B41F64B525A60064AF02182F8231075
:2006E00000229A6007221A606FF0040001F00CBB10E000E000ED00E0014B5868704700BF01
:20070000E809002073B50120014600F0CBFF00244FF48073022569461B4800938DF806408D
:200720008DF807408DF804508DF8055000F00EFE21464FF4800000F00DFF2846012100F098
:20074000B1FF0420012100F0ADFF0820012100F0A9FF1020012100F0A5FF8DF806408DF8EF
:20076000074004F1804404F50434032601232046694600968DF804308DF8055000F0E6FDEA
:20078000268302B070BD00BF00000240034B08B1034A00E0034ADA60704700BF00ED00E0D2
:2007A0000400FA050100FA0570B5012188B00646042000F077FF544801F078F82020012182
:2007C00000F0A0FF022500244023504802A902938DF80C508DF80E408DF80D508DF80F409A
:2007E00000F0B4FD8023494802A902938DF80C508DF80E408DF80D508DF80F4000F0A6FDE7
:2008000042480621082200F01EFE40480721082200F019FE04A801F0F5F80B2E25D8DFE889
:2008200006F02406090C0F1215181B1E20224FF461531CE04FF4964319E04FF4E14316E055
:200840004FF4164313E04FF4614310E04FF496330DE04FF4E1330AE04FF4613307E02C4BC3
:2008600005E02C4B03E02C4B01E04FF4165304A92548049301F06EF84723002401258DF8F4
:20088000043001A807238DF805308DF806408DF8075001F0EDF91C4840F2FF3101F0B2F9B7
:2008A00022461948282101F08FF92A46164840F2277101F089F92A46134840F2266101F02D
:2008C00083F92A46104840F2255101F07DF922460D4840F2244101F077F922460A4840F620
:2008E000460101F071F92246074840F66A1101F06BF922460448602101F066F9024829465B
:2009000001F0A1F808B070BD001401400008024090D0030020A1070040420F00214910B5DE
:200920000B88980614D5204B1A6858680132202A08BF0022824205D01C6888881919C0B2B9
:2009400008721A60194A0A2111609A6A184B1A60144803881A0618D5154B1A68AAB9124B2D
:20096000DC6A196B8C420CD0196B4C1C1C63194491F83410C9B28180196B202905D11A63D2
:2009800003E040F2277101F01FF9064803885B0606D540F2266101F059F9034B1A6BDB6A78
:2009A00010BD00BF00140140F0090020B80A0020B40A00200A4BDA6A196B0132202A08BF1C
:2009C00000228A420AD0D96A194481F83400DA62044840F22771012201F0F6B8704700BF78
:2009E000F0090020001401400A4B59681A6891420BD05A68511C59601A44127A02705A683D
:200A0000202A04D100225A6001E0002070470120704700BFF0090020014B9862704700BFB7
:200A2000F0090020044B1A7802F0FF0012B100221A700120704700BFBC0A002072B6034B69
:200A400000225A601A6062B6704700BFF009002010B5441E14F8010F10B1FFF7ABFFF9E715
:200A600010BD00BF704770477047704770477047704712230B800148704700BF0400002046
:200A800004230B80004870471600002000207047002070470020704770B5084C00222368C4
:200AA0008A4207D03F2B03D8865CE5182E7101330132F5E72360002070BD00BF440A002090
:200AC00010B5044C0A460448214601F0D9FD204610BD00BF43190020C938000810B5044CAB
:200AE0000A460448214601F0CBFD204610BD00BF43190020E538000810B5044C0A460448F6
:200B0000214601F0BDFD204610BD00BF43190020FD38000810B5044C0A460448214601F00F
:200B2000AFFD204610BD00BF431900200539000810B5044C0A460448214601F0A1FD204648
:200B400010BD00BF4319002010390008202811D0212821D1114B9A69100A0A704870100C11
:200B6000120ECA701A7F88700A715A7F9B7F4A718B7111E08A784878120442EA00220878CE
:200B8000064B0243C87842EA00629A610A791A774A795A778A799A7700207047040000203F
:200BA000F7B5274C4FF4C0530026032700932046022369468DF804308DF805708DF8066005
:200BC0008DF8076000F0C2FB20460B210A2200F03AFC20460A220C2100F035FC01254FF44F
:200BE00000732046694600938DF805708DF804608DF806508DF8076000F0A8FB20460A220B
:200C0000092100F020FC4FF480632046694600938DF806508DF807508DF8057000F096FB9E
:200C20000A210A46204600F00EFC29464FF4804000F068FD8020294600F040FD03B0F0BD76
:200C40000000024007B54FF4C06001F007F843238DF804300322012301A88DF805308DF8F3
:200C600006208DF8073001F003F803B05DF804FB782358430722B0FBF2F000230133834297
:200C8000FCD970474FF47A735843FFF7F1BF014802F0D0BAC00A0020F0B500238B420ED035
:200CA000074A084E15686C1C1460C75CB4F5006F28BF0024775528BF14600133EEE7F0BDF1
:200CC000980A002043110020074B10B51A684AB1002305490C1D1C5DC45401339342F8D14D
:200CE00000230B60104610BD440A0020084B1B68082B0BD90023064A111D595CC154013349
:200D0000092BF8D1002313600120704700207047440A002007B5064A064802F13C03009304
:200D200001212032044B01F015F903B05DF804FB04000020C00A002018010020014802F068
:200D40004CBA00BFC00A00207047FEE7FEE7FEE7FEE7704770477047704700002F4B82B011
:200D60001A6842F001021A6000229A60196821F0847121F48031196029495960196821F49F
:200D800080211960DA60009201921A6842F480321A60224B1A6802F400320192009A01327F
:200DA0000092019A1AB9009AB2F5A06FF1D11B6813F4003318BF01230193019B012B04D039
:200DC000184B194A9A6002B07047144B9A689A609A6842F400429A609A6842F4A0529A60F7
:200DE000124A5A601A6842F080721A6019680B4A8901FBD50E4B40F203711960936823F007
:200E000003039360936843F002039360034B9B6803F00C03082BF9D1D2E700BF0038024071
:200E20001030002400ED00E000000008081E4005003C0240134A10B59068134B00F00C001C
:200E40000428124913D0082811D154685068526800F03F00C2F38812B1FBF0F15143094AF6
:200E60005268C2F3014201325200B1FBF2F1054A19609268C2F303121A4411791A68CA40AC
:200E80001A6010BD003802407C0000200024F400014BC0B218707047003C0240044B1A6891
:200EA00010B142F4807201E022F480721A607047003C0240044B1A6810B142F4007201E096
:200EC00022F400721A607047003C0240044B1A6810B142F4806201E022F480621A60704727
:200EE000003C0240024B1A6842F400621A607047003C0240024B1A6842F480521A60704756
:200F0000003C0240044B1A69002A04DA034A5A6002F188325A607047003C02402301674506
:200F2000024B1A6942F000421A617047003C0240044B5A69D20704D5034A9A6002F1443249
:200F40009A607047003C02403B2A1908024B5A6942F001025A617047003C0240044B1A78C6
:200F600002F0F3021A701A7810431870704700BF143C0240024B5869C0F34710704700BFFD
:200F8000003C0240014B188880B27047163C0240024B1878AA3818BF01207047153C024069
:200FA000024B187800F00C00704700BF143C0240044B1A6909B1104301E022EA000018610B
:200FC000704700BF003C0240034BDB6818420CBF00200120704700BF003C0240014BD860AE
:200FE000704700BF003C02400B4BDA68D1030DD4DA68D2060CD4DA6812F0EF0F0AD1DB6856
:2010000013F0020F0CBF082007207047012070470520704706207047003C024007B50823F5
:201020008DF80730FFF7E0FF8DF807009DF80730012BF7D09DF8070003B05DF804FB70B50C
:20104000064641B1012908D0022914BF4FF440754FF4007503E00D4601E04FF48075FFF75D
:20106000DDFF08281ED1104C236923F44073236121690D432561236923F0F8032361236935
:2010800043F002031E432661236943F480332361FFF7C4FF236923F002032361236923F0B6
:2010A000F803236170BD00BF003C024010B50446FFF7B4FF44B1012C08D0022C14BF4FF451
:2010C00040734FF4007303E0234601E04FF48073082815D10B4C226922F440722261226976
:2010E00013432361236943F004032361236943F480332361FFF792FF236923F00403236121
:2011000010BD00BF003C0240F8B5074614461D46FFF784FF082814D10A4E336923F44073C2
:201120003361336943F440733361336943F001033361C7E90045FFF771FF336923F001038C
:201140003361F8BD003C024070B505460E46FFF765FF082813D10A4C236923F44073236166
:20116000236943F400732361236943F0010323612E60FFF753FF236923F00103236170BD44
:20118000003C024070B505460E46FFF747FF082813D10A4C236923F440732361236943F4CA
:2011A00080732361236943F0010323612E80FFF735FF236923F00103236170BD003C0240C7
:2011C00070B505460E46FFF729FF082811D1094C236923F44073236123692361236943F01D
:2011E000010323612E70FFF719FF236923F00103236170BD003C024038B504460D46FFF769
:201200000DFF082809D1054B1A881DB192B222EA040401E01443A4B21C8038BD163C0240ED
:2012200010B50446FFF7FAFE082804BF014B1C7010BD00BF153C024070B504460D461646A9
:20124000FFF7ECFE082807D1044B1A7802F00F021443264335431D7070BD00BF143C02407F
:20126000034B1A7842F002021A70FFF7D7BE00BF143C024008B52C4B984205D101200146A6
:2012800000F04CFA012048E0284B984205D10220012100F043FA02203FE0254B984205D1DA
:2012A0000420012100F03AFA042036E0214B984205D10820012100F031FA08202DE01E4B6B
:2012C000984205D11020012100F028FA102024E01A4B984205D12020012100F01FFA202006
:2012E0001BE0174B984205D14020012100F016FA402012E0134B984205D18020012100F04D
:201300000DFA802009E0104B98420BD14FF48070012100F003FA4FF480700021BDE80840A9
:2013200000F0FCB908BD00BF000002400004024000080240000C02400010024000140240BC
:2013400000180240001C0240002002402DE9F0410F68002301229A4002EA0705954231D1C4
:201360005A00032494400668E443264006600E79D0F800C006FA02F8013EF6B248EA0C0C7D
:20138000012EC0F800C014D891F805C086680CFA02FC2640866086684CEA0606866046686A
:2013A00026EA050545608D7946689D40ADB235434560C5682C40CD79C46005FA02F2C4683F
:2013C0002243C2600133102BC4D1BDE8F0814FF6FF7303600023037143718371C371704728
:2013E00082B04FF480330193019B0B430193019BC361C161019BC361C3690193C369019391
:2014000002B07047036919420CBF002001207047006980B27047436919420CBF0020012074
:201420007047406980B2704701837047418370470AB1018370474183704741617047436937
:2014400059404161704701F00703C90800EB81009B000F2199409A4010B5046A24EA0101A1
:201460000162016A1143016210BD00BF0A4B00211A6842F001021A6099601A6822F0847231
:2014800022F480321A60054A5A601A6822F480221A60D960704700BF0038024010300024C0
:2014A000024B00221A701870704700BF02380240034B1A6822F0F80242EAC00018607047C2
:2014C00000380240014B1860704700BF00004742064B002201281A701A7002D0042802D04F
:2014E00070471870704705221A70704770380240014B1860704700BF800E474210B5029CF0
:201500005B0840EA04600143013B41EA821242EA0344014B5C6010BD00380240014B186015
:20152000704700BF600047420907034B41EA8010C3F88400704700BF00380240014B186040
:20154000704700BF68004742014B1860704700BF4C004742034B9A6822F0EC6211430843C6
:201560009860704700380240034B9A6822F07842114308439860704700380240034B9A680E
:2015800022F0030210439860704700BF00380240024B986800F00C00704700BF00380240C0
:2015A000034B9A6822F0F00210439860704700BF00380240034B9A6822F4E05210439860B9
:2015C000704700BF00380240034B9A6822F4604242EAC0009860704700380240194B10B5D5
:2015E0009968194A01F00C01042913D0082911D15C6859685B6801F03F01C3F38813B2FBEF
:20160000F1F25A430F4B5B68C3F3014301335B00B2FBF3F20B4902608B680C4AC3F3031347
:20162000D45C0368E34043608C68C4F38224145D23FA04F484608968C1F34231525CD340B5
:20164000C36010BD003802400024F4009000002000F44073B3F5407F084B08D1996820F00D
:20166000704221F4F81122F440720A439A601A6FC0F30B0010431867704700BF0038024082
:20168000014B1860704700BF3C0E4742014B1860704700BF400E4742014B1860704700BFF2
:2016A0005C014742044B1A6B09B1104301E022EA00001863704700BF00380240044B5A6BF7
:2016C00009B1104301E022EA00005863704700BF00380240044B9A6B09B1104301E022EA17
:2016E00000009863704700BF00380240044B1A6C09B1104301E022EA00001864704700BF3E
:2017000000380240044B5A6C09B1104301E022EA00005864704700BF00380240044B1A69C2
:2017200009B1104301E022EA00001861704700BF00380240044B5A6909B1104301E022EA3A
:2017400000005861704700BF00380240044B9A6909B1104301E022EA00009861704700BF25
:2017600000380240044B1A6A09B1104301E022EA00001862704700BF00380240044B5A6AA5
:2017800009B1104301E022EA00005862704700BF00380240044B1A6D09B1104301E022EAD5
:2017A00000001865704700BF00380240044B5A6D09B1104301E022EA00005865704700BF79
:2017C00000380240044B9A6D09B1104301E022EA00009865704700BF00380240044B1A6E7B
:2017E00009B1104301E022EA00001866704700BF00380240044B5A6E09B1104301E022EA70
:2018000000005866704700BF00380240044B1A7809B1104301E022EA00001870704700BF41
:201820000D3802404309012B074A01D1136803E0022B0CBF136F536F00F01F0023FA00F0D0
:2018400000F00100704700BF0038024007B5002301933120FFF7E6FF019B01330193019B08
:20186000B3F5A06F01D00028F3D03120FFF7DAFF003018BF012003B05DF804FB024B5A6F90
:2018800042F080725A67704700380240034BDB6818420CBF00200120704700BF003802404B
:2018A000014B1870704700BF0E38024008B5234B984205D110200121FFF760FF102037E08D
:2018C0001F4B984207D14FF400300121FFF74AFF4FF4003009E01B4B98420BD14FF48020BD
:2018E0000121FFF73FFF4FF480200021BDE80840FFF738BF144B984207D14FF4002001211E
:20190000FFF730FF4FF40020EFE7104B984207D14FF480100121FFF725FF4FF48010E4E7AF
:201920000B4B984209D120200121FFF727FF20200021BDE80840FFF721BF08BD00100140E5
:201940000044004000480040004C00400050004000140140038ACA889BB223F4405330B54F
:2019600013430D4603820989AB8882890B43698992B20B4322F4B05222F00C029BB21343BC
:201980008381838AAA899BB223F44073134385B0838204466846FFF721FE194B9C4203D03A
:2019A00003F580639C4201D1039B00E0029BA289192112B25943002A2A684FF06403B4BFE7
:2019C00052009200B1FBF2F1B1FBF3F21201100903FB1011A08900B2002806DAC9003231A9
:2019E000B1FBF3F303F0070305E009013231B1FBF3F303F00F031A4392B2228105B030BD89
:201A0000001001404FF4165303600C2200238380C38003814281838170470B8810B54C88A1
:201A2000028A23438C88C988234392B20B4322F470629BB21343038210BD00230380438011
:201A40008380C3807047838919B19BB243F4005303E023F400531B041B0C83817047038B00
:201A600003F47F430383038B9BB2194301837047838929B16FEA43436FEA53439BB201E0D3
:201A8000C3F30E0383817047838A19B19BB243F4006303E023F400631B041B0C83827047A7
:201AA000C1F30801818070478088C0F308007047038A23F00F031B041B0C0382038A9BB2E0
:201AC000194301827047838919B19BB243F0020303E023F002031B041B0C8381704783890D
:201AE00023F400631B041B0C838183899BB2194381817047038A23F020031B041B0C038226
:201B0000038A9BB2194301827047038A19B19BB243F4804303E023F480431B041B0C03822F
:201B2000704783899BB243F0010383817047838A19B19BB243F0080303E023F008031B0421
:201B40001B0C83827047038BDBB20383038B9BB243EA012101837047838A19B19BB243F045
:201B6000200303E023F020031B041B0C83827047838A19B19BB243F0100303E023F01003B4
:201B80001B041B0C83827047838A23F004031B041B0C8382838A9BB2194381827047838A54
:201BA00019B19BB243F0020303E023F002031B041B0C83827047838A9BB20AB1194301E087
:201BC00023EA010181827047C1F3421310B5012401F01F01A34204FA01F101D10C3003E072
:201BE000022B0CBF1030143003680AB1194301E023EA0101016010BD038819420CBF0020F8
:201C000001207047C94389B20180704710B5C1F3421401F01F030122012C02FA03F201D178
:201C2000838903E0022C0CBF038A838A9BB21340028892B243B10123090A03FA01F1114247
:201C40000CBF0020012010BD184610BD090A01238B40DB439BB20380704700BF40F0BF60CB
:201C6000024B40F40030D860704700BF00ED00E0C27810B503780AB3164A4478D26803F1B7
:201C80006043D243C2F30222C2F10401C9B204FA01F10F2444FA02F28478C9B222400A4305
:201CA0001201D2B203F5614383F8002303780122590903F01F0302FA03F306E059090122E1
:201CC00003F01F0302FA03F32031034A42F8213010BD00BF00ED00E000E100E021F0604108
:201CE00021F07F01014B08439860704700ED00E0044B1A6909B1104301E022EA00001861FB
:201D0000704700BF00ED00E0044B04281A680CBF42F0040222F004021A60704710E000E067
:201D200010B5D0F8E83504461B699847032384F81231002010BD08B590F8123180F8133136
:201D4000042380F81231D0F8E835DB689847002008BD08B5D0F8E435DB6903B19847002020
:201D600008BD08B5D0F8E4351B6A9847002008BD08B5D0F8E4355B6A9847002008BD10B5CB
:201D8000D0F8E83504465B699847012384F81531002010BDD0F8E83510B59B6904469847C7
:201DA000D4F8E43520465B6800219847002084F8150110BD002110B50B460446402201F0C2
:201DC0004FF9802140222046002301F049F9012384F81231D4F8E835A0785B689847002056
:201DE00010BD13B56946044600F074FA9DF8001001F01F03012B0CD006D3022B0ED12046EC
:201E0000694600F0DBFB0EE02046694600F092FA09E02046694600F0B9FB04E0204601F0F1
:201E2000800101F08AF9002002B010BD70B50446002947D190F81131022B37D1D0F838213E
:201E4000D0F824319A4211D9C178D21A0129C0F8382104D1D0F828110B44C0F828312046A3
:201E6000D4F8281192B200F0EEF91FE0D0F83C51B5FBF3F603FB16565EB99D4209D3D0F851
:201E800040319D4205D2324600F0DDF9C4F840610CE0D4F8E435DB682BB194F81221032AA4
:201EA00001D120469847204600F0FFF994F81631012B10D1094A236912685A60002384F82B
:201EC000163108E0D0F8E4355B6923B190F81221032A00D19847002070BD00BFB4100020D2
:201EE00010B5044659BB90F81131032B30D1D0F89023D0F87C339A4214D9C178D21A0129BC
:201F0000C0F8902304D1D0F880131944C0F880139A4228BF1A462046D4F8801392B200F062
:201F2000ACF915E0D0F8E4351B6923B190F81221032A00D19847204600F0A8F908E0D0F88F
:201F4000E4359B6923B190F81221032A00D19847002010BD2DE9F041069F0446164698469B
:201F60000D46FEF71DFE20462946C4F8E485C4F8E875C4F8EC6501F027F8D4F8E8351B6862
:201F800098472046BDE8F041FEF75CBE00207047D0F8E43510B51B6804469847D4F8E83505
:201FA0009B689847002010BD08B5D0F8E4355B689847002008BD00BF10B5074C2068FF28A7
:201FC00007D0064B064A9B68064912689847FF232360002010BD00BFD00000206800002015
:201FE000880A00203B11002043230B8000487047D40000201B4970B54B685A1C052B4A6053
:202000002ED10A7A0023012A4B6029D0CA68B2F5006F08BFCB60CC680A69124B944202D164
:2020200000221A721CE08CBFC4F50062C4EB02025A614E690B4D402EA2B205D94034403E81
:20204000EC606E61402304E03444EC600024B3B26C6101240C72044C8121224401F054F8CC
:20206000002070BD880A00204311002038B5282303FB0101074C084B05461B692046B1F831
:202080008C139847284601212246402301F021F8002038BDFB1000206800002070B50B78ED
:2020A000064613F060050C4627D0202D21D1CD884A78BDB11B060BD5214B10469B682A4629
:2020C0002049984730461F49E28800F0ABF807E01D4B1C491A601D4B2A461D6000F0BCF8B6
:2020E00000252BE0164B10469B6829462A46984724E000F011F9022520E04B780A2B11D03A
:202100000B2B14D0062B19D14B881B0A212B05D1CA880F493A2A28BF3A2201E00D493A228C
:20212000304601E00C49012200F07CF806E08B7813B9064B9D6101E000F0EEF8284670BD16
:20214000680000203B110020D0000020880A0020E6000020DD000020A00A002010B58121B5
:20216000044600F09EFF2046012100F09AFF8221204600F096FF024B5B689847002010BD0D
:202180006800002038B5812104464022022300F067FF204601214022022300F061FF8221FF
:2021A00020460822032300F05BFF084B022200251A715D71064B1B68984720460121054AA0
:2021C000402300F086FF284638BD00BF0400002068000020FB10002038B510490B7A012B37
:2021E00019D14C690CB90C7215E0402C07D9CB68403C9AB24033CB604C61402306E0CD68F8
:20220000A3B22C44CC600024AAB24C61044C8121224400F079FF002038BD00BF880A00205A
:202220004311002038B50446C4F83C21C4F838210D461346022280F8112100212A4600F0CA
:2022400063FF002038BD10B50C4613460021224600F05AFF002010BD38B50446C4F894232E
:20226000C4F890230D461346032280F8112100212A4600F02EFF002038BD10B50C46134641
:202280000021224600F025FF002010BD10B50021042304460A4680F811310B4600F034FFDF
:2022A000204600F0C6FD002010BD10B50021052304460A4680F811310B4600F00AFF204606
:2022C00000F0B7FD002010BD282303FB0101B1F88C03704790F8CC350B7090F8CD354B70EA
:2022E00090F8CF2590F8CE3503EB02234B8090F8D12590F8D03503EB02238B8090F8D32550
:2023000090F8D23503EB02239BB2CB80C0F84031012380F81131704710B58021044600F025
:202320000CFF2046002100F008FF2046BDE8104000F07FBD73B54B7804460D46092B00F2DF
:202340001681DFE813F0C70002011401DA0014016E000A001401B9008D006B881A0A013A29
:20236000062A00F20481DFE812F007001A0027000201020102010201D0F8EC350DF10601AB
:202380001B6880789847EB880146402B03D094F81231012B35D10823ADF8063031E0D0F80B
:2023A000E4350DF106019B6A80789847022343700146C4F8F00524E0DBB2052B00F2D78049
:2023C000DFE803F003070B0F1317D0F8EC355B6812E0D0F8EC359B680EE0D0F8EC35DB6851
:2023E0000AE0D0F8EC351B6906E0D0F8EC355B6902E0D0F8EC359B690DF10601A078984728
:202400000146BDF80630002B00F0B580EA88002A00F0B1809A4228BF1A46ADF80620204629
:2024200068E0AB88002B40F0A280EB88002B40F09E8090F81231AE78032B06F07F0600F02E
:20244000968080F81461314600F0B7FE2046FFF71DFF0EB1022300E0012384F812318AE0D4
:20246000A978464E0129317000F2818090F81231022B02D0032B09D079E0002961D0012143
:20248000032380F8101180F8123111E039B9022380F8123180F81011FFF786FD51E090F834
:2024A000101101294DD0FFF77FFD317884F810112046FFF76DFD44E0EA88012A57D190F8C5
:2024C0001231022B04D0032B51D100F5887111E02B490FE090F81231023B012B47D8274B61
:2024E00001229A60D0F818210AB103229A60254920460222FFF796FE3DE06B88012B2DD029
:20250000022B38D1AA8812F0FF0F34D10369120A013A5B68042A0FD8DFE802F003050709D2
:202520000B00012206E0022204E0032202E0042200E0052262F30613134A1360012384F86D
:2025400016312046FFF7A2FE15E090F81231023B012B0CD86B88012B0DD10023C4F8183106
:20256000D4F8E43520469B6829469847E9E720462946FFF7D1FE002002B070BDA40A002088
:20258000A80A0020AC0A0020B410002038B590F812310446032B0D460CD10B79012B09D8BE
:2025A000D0F8E4359B689847EB882BB92046FFF76DFE01E0FFF7B0FE002038BD70B54E78B5
:2025C0008A88012E04460D46D3B210D027D3032E50D190F81221022A28D0032A48D14A8875
:2025E0009AB95E0611D0194600F0A7FD0DE090F81221022A1AD0032A3AD14A88002A39D154
:20260000590608D0194600F0B2FDD4F8E43520469B68294698472046FFF738FE2AE090F8C5
:202620001251022D02D0032D06D021E05A0621D0194600F082FD1DE012F0800F4FF028011A
:202640000D4A10D003F07F0301FB030191F81E310BB1012300E00023D36020460749022206
:20266000FFF7E0FD06E001FB030393F87633EFE7FFF752FE002070BDA40A0020B00A00205A
:2026800030B5D0B10023DCB20133C51815F8015C002DF8D1631C5B0013800B7003234B70E9
:2026A0000138022310F8012F3AB15C1CCA54E4B202330022DBB20A55F4E730BD37B5002353
:2026C000104C054601930320FEF7D2FA2B68013C1A69019213D0019A002AF4DA019A42F0B2
:2026E00001020192019A1A61064A1969013A019102D00199C907F8D40320FEF7B9FA00209C
:2027000003B030BD410D030030B5C4786CB900EB82000333D0F8D0509B1022469A4204D034
:2027200051F8220001322860F8E7002030BD10B50332D0F8D0409210002393424FEA83005F
:2027400004D0206841F823000133F6E7084410BD0122F0B50023827001294FF04002C370DC
:2027600082800CD108230370042343704FF4A073C38002230372C1724FF0A04309E041B997
:202780000C230370062343704FF4A063C380234BC17203F5006245780261C360024619464D
:2027A0000024AC4201F1200602F1040208D201F5106701F530611165576101343146F0E777
:2027C000047803F58062426103EB441503F58862C0F8CC2005F5A06503F5A0620146AA4207
:2027E00001F1040103D0C1F88C202032F7E703EB043403F5805204F580540146A24201F1A0
:20280000040104D0C1F8CC2002F58052F6E703F56063C0F80C310020F0BD00BF0000044014
:2028200038B5037A0546012B4FF0000450F80C2F1ED1936B697A64F3104309B143F48013F3
:202840009363D3686FF386136FF396536FF351436FF3D343D360FFF731FFEB78012B19D1C1
:20286000052363F34404EB6844F020049C6011E0D36843F04003D360FFF720FF6B7AEA68CA
:20288000002B0CBF4FF450234FF4E81393631420FEF7F8F9EB78012B07D1EB6805229C6859
:2028A00062F3440444F020049C60002038BDC36800209A6842F001029A607047C368002094
:2028C0009A6822F001029A60704707B500230193019B43F020030193019B61F38A13019316
:2028E000019BC2681361074B1169013B019102D001998906F8D40320FEF7BAF9002003B09F
:202900005DF804FB410D030007B500230193019B43F010030193019BC2681361074B116923
:20292000013B019102D00199C906F8D40320FEF79FF9002003B05DF804FB00BF410D0300DB
:20294000C26808B5D36801296FF35D736FF39E7302D143F0005302E009B943F08043D36060
:202960003220FEF78FF9002008BDC368586900F001007047C368586900F0010080F00100C1
:202980007047C368586900F001007047C3685A69986910407047C3685868704703691A6866
:2029A00061F301021A60704710B5C26800236FF080414FF0FF34936151615460516109498D
:2029C0009161C1780020994208BF102343F0804343F47013916943F4605343F00C030B43B3
:2029E000936110BD0008008038B5D0F80C3100221A60036915461A68044665F3CC221A60AD
:202A0000C37A012B21D10321FFF7C8FFE36880214FF4001261F30F0259629A62A02262F306
:202A20000F0561F31F454FF49072C3F8045162F30F05C0F220054FF4A072C3F8085162F377
:202A40000F056FF31F45C3F80C5110212046FFF73CFF2046FFF758FF236900224FF0FF31EC
:202A60001A615A619961DA6161788A420FD204EB82018969013208680028ACBF00204FF06C
:202A80009040086000200861FF208860ECE7002261788A420FD204EB8201496D0132086828
:202AA0000028ACBF00204FF09040086000200861FF208860ECE71A6942F480721A61E27809
:202AC000012A04D1044A402161F359421A632046FFF76AFF002038BD0301010003699B688D
:202AE000C3F34103022B05D0032B05D0012B03D0032070470120704702207047036910B51C
:202B00009C688169C4F341000A68022806BF032060F30A026FF30A020A605A68002042F4FC
:202B200080725A6010BD30B54D780B78012D4FF0000200EB830405D105FA03F3A46963F3E0
:202B40000F0205E0012505FA03F3646D63F31F4223681D040DD48D6865F30A03CD78C9885F
:202B600065F3934361F3995343F0805343F40043236003690020D9690A43DA6130BD30B5BC
:202B80004D780B780024012D224600EB830105D105FA03F3896963F30F0205E0012505FA96
:202BA00003F3496D63F31F4203696FF3CF340C60D969002021EA0202DA6130BDF8B54E7869
:202BC0000A460978012E536900EB810145D18D6929682C6963F3120413B966F3DC440BE0FE
:202BE00096689F19013FB7FBF6F666F3DC44D678012E08BF66F35E742C61C4781578012CD6
:202C000005D100EB8505AD6914696C610AE0D478012C07D033B1012707FA05F50469666B8A
:202C200035436563D478012C07D10469A468E40554BF41F0005141F08051147841F0044108
:202C400000EB8404A4692160D178012936D1D1689BB21278FFF758FD30E04E6D956831683D
:202C600034692BB965F31204012363F3DC440AE02B44013BB3FBF5F363F3DC44C3F3090368
:202C80005D4365F312043461C378012B05D1137800EB83035C6D13696361D378012B06D101
:202CA000537913B141F0005101E041F08051137841F0044100EB8300436D19600020F8BDB2
:202CC000F7B591F801C04A69BCF1010F3DD18469236826690096F5B2C6F3074742B962F3E5
:202CE00006056CF3C4078DF800508DF802700FE08E68B2428ABF66F3060562F306054E613E
:202D000001223E4662F3C4068DF800508DF80260009A2261C278012A05D10A7800EB8202E8
:202D200095690A696A6143F004432360C378002B3FD14B69002B3CD00A78012101FA02F266
:202D40000369586B02435A6333E00B7800EB83035C6D236825690095EFB2C5F307468D6829
:202D60004AB9012265F3060762F3C4068DF800708DF802600BE03A4665F306024D618DF8CF
:202D800000203546012262F3C4058DF80250009A2261C278012A05D10A7800EB8202546D76
:202DA0000A6962610A7843F0044300EB8200426D1360002003B0F0BD4B78012B0B7800EB75
:202DC000830006D182691368002B04DA43F0804301E0426D136843F4001313600020704795
:202DE0004B78012B0B78C97800EB83000CBF8269426D02391368C9B26FF35553012998BF91
:202E000043F0805313600020704703699A69D8691040000C704700EB81014B6D02699B680C
:202E200050691840704703699869DB69184080B2704782B000230093C0238DF80330012232
:202E40004FF0000362F3C4038DF8023018238DF80030009A436D1A61C278012A06D100F27A
:202E6000CC5058611A684FF080221A6002B07047D0F8183110B50446D3B103699A68D2074C
:202E800016D5827A42B1D0F80C21D0F80C116FF341026FF300020A605A68052042F00102EF
:202EA0005A60FDF7EFFE23695A6822F001025A6010BD837A63B103699B68DB0708D5D0F886
:202EC0000C31D0F80C216FF341036FF3000313607047012310B5002280F812310446034632
:202EE000617804338A4206D25869FF218160186D01328160F4E7236900221A615A61DA61C9
:202F00004FF0FF3220469A61FFF7FEFC20461021BDE81040FFF7D9BC4B78012B0B7800EB7C
:202F2000830009D183691B68990211D413F4003F0CBF302020207047436D1B689A0209D441
:202F400013F4003F0CBF4FF440504FF400507047102070474FF48050704730B54D780C4696
:202F6000012D0D7800EB85030BD19D69102A2B6803D1BDE83040FFF71FBF202A0CD0302A3F
:202F80000FE05D6DB2F5805F2B6802D143F4001318E0B2F5005F02D143F0006312E0B2F542
:202FA000405F0CD19A0205D500236371BDE83040FFF716BF43F0044343F4004302E00AB9AF
:202FC00062F3CF332B6030BD10B50446FFF7C0FB0123002284F8123184F81421234661786A
:202FE00028338A4212D2012183F8F5104020002183F8F420A3F8FA2083F8F710C3F8FC0026
:20300000C3F80011C3F808110132E8E723460022617828338A4211D20021402083F84C2335
:20302000A3F8522383F84D1383F84F13C3F85403C3F85813C3F860130132E9E72046FFF703
:203040003DFC2046FFF7ECFB20460021FFF778FC2046FFF7C9FC2046BDE81040FFF727BCAE
:2030600070B5CDB215F0800F01F07F044FF0280615BF06FB040106FB010101F58E7101F56F
:203080005D71E4B2ED090C704D708A60CB7005B1CC80022B04BF00230B71FFF744FD002090
:2030A00070BDCBB213F0800F01F07F0210B54FF0280415BF04FB020104FB010101F58E7166
:2030C00001F55D71DB090A704B70FFF758FD002010BD38B501F07F04282505FB040505F52A
:2030E0005D714B610023CA608B614B7085F87443C378012B08BF0A6114B9FFF7E1FD01E013
:20310000FFF75CFD002038BD70B501F07F04282505FB0405012605F58E714E7085F81C41A4
:20312000CA600A6100228A614B6114B9FFF7C8FD01E0FFF743FD002070BDCBB213F0800F46
:2031400001F07F0210B54FF0280415BF04FB020104FB010101F58E7101F55D71DB09012434
:203160008C700A704B70FFF727FE002010BDCBB213F0800F01F07F0210B54FF0280415BF91
:2031800004FB020104FB010101F58E7101F55D710024DB098C700A704B70FFF721FE2046BF
:2031A00010BD08B50B0604D501F07F01FFF78DFB01E0FFF7A9FB002008BD0269002361F36A
:2031C0000A1311680B4313607047036903205A686FF341025A60FDF755BD036903205A68DA
:2031E00042F002025A60FDF74DBD11F0800F4FF0280306D001F07F0103FB010101F58E71AB
:2032000003E003FB010101F55D71FFF785BE11F0800F4FF0280306D001F07F0103FB01018D
:2032200001F58E7103E003FB010101F55D71FFF794BE00002DE9F04F85B00446FFF79AFB4B
:2032400008B900201DE22046FFF7A0FB06460028F7D0C0F3C04000284FD02046FFF7D5FD34
:2032600027468046A1464FF0000AB8F1000F43D018F0010F38D05FFA8AFB59462046FFF727
:20328000CAFDC107054620D57B6D01259D60E278AA4207D11A69D9F87C33C2F312029B1AB5
:2032A000C9F88C33A64B20461B6859461B689847E378012B09D1BAF1000F06D194F81131F3
:2032C000052B02D12046FFF7B4FDAA0702D57B6D02259D602B0707D5994B20461B68082542
:2032E0009B6898477B6D9D600AF1010A4FEA5808043709F12809B8E70120750340F1A38076
:203300002046FFF790FDA046824627464FF00009BAF1000F00F096801AF0010F00F08A808D
:2033200023695FFA89FB19695D6B04EB8B0225FA0BF59269ED019268EDB20D431540E80729
:203340001CD5012505FA09F15A6B204622EA01025A63D8F8183059469D60794B1B685B68A8
:203360009847E378AB4209D1B9F1000F06D194F81131042B02D12046FFF75BFD290703D530
:20338000D8F8183008259D60EA0603D5D8F8183010259D606B0603D5D8F8183040259D6016
:2033A000A80703D5D8F8183002259D60290641D5D7F83431D7F83021D21AD7F824319A42C5
:2033C00038BF134603F1030CD8F818304FEA9C0C9B699BB2634529D9D7F83451D7F8303122
:2033E0009D4223D213B3D7F824215D1B954228BF154605F1030C4FEA9C0CABB2D7F8281143
:2034000020465A46CDF804C0FFF77EF9D7F828312B44C7F82831D7F834311D44C7F8345128
:20342000D8F81830DDF804C09B69D2E7D8F8183080259D6009F101094FEA5A0A08F10408BE
:20344000283765E70120B20702D5E36802225A61002E19DAA37A43B1D4F80C31D4F80C21B2
:203460006FF341036FF300031360236920465A6822F001025A60324B1B689B699847E3681D
:203480004FF000425A61012033052DD500238DF80F3094F8123120468DF80F30284B1B68BF
:2034A0005B69984723694FF400619A68E3685961A37AC3B1D70716D594F81531012B12D1F7
:2034C0009DF80F30032B0ED1D4F80C311A6842F001021A601A6842F003021A60194B1A69B7
:2034E00042F006021A610120350708D5144B20461B68DB689847E36808225A610120F1062B
:2035000036D5E36828259A6922F010029A611F6A07F00F0305FB0345C7F34343022B05F5A5
:203520005D7511D0062B1DD1204604F2CC510822FFF7FDF8AB69C7F30A173B44AB6111E0C0
:20354000A000002000ED00E0C7F30A1757B13A462046E968FFF7EBF8EB683B44EB60AB69BA
:203560001F44AF61E36801209A6942F010029A61F20434D5236900255A68204622F001023D
:203580005A602946FFF7A1F923462A46617804338A4206D25869FF218160186D013281608A
:2035A000F4E7236901274FF0FF3267F30F059A6167F31F450B22DD615A611A611A6820465C
:2035C0006FF30A121A60FFF734FCE3684FF480525A612D4B20461B681B6998473846B304B9
:2035E0001DD52046FFF78AFAE3682046DD68FFF775FA032806D10023A3704FF40073A3808D
:20360000092304E00123A3704023A380052363F38D25E3684FF40052DD6001205A61F702BB
:2036200009D5194B20461B68DB699847E3684FF480125A610120B50209D5134B20461B6864
:203640001B6A9847E3684FF400125A610120710009D50D4B20461B685B6A9847E3684FF0CC
:2036600080425A61012072070BD5E3685D686B0704D5054B20461B689B6A9847E36801206F
:203680005D6005B0BDE8F08FA0000020002100F004B80C4B5B58435004310B480B4B421832
:2036A0009A42FFF4F6AF0A4A00F003B8002342F8043B084B9A42FFF4F9AFFDF74FFB00F003
:2036C0000DF887464C390008000000207005002070050020441A0020FFF7FEBF38B5314BA7
:2036E000314C324A324933485B6CC4F84024C4F84814C4F84C04B3B91568013D033512D887
:2037000009684D1E03350ED8C4F85024013AC4F854140A44284911F8015F91422B44FAD1EB
:2037200002689A4238D0FCF7EDFFFCF7D1FF0720FDF73AF8FDF7EEFA204B01225A830222E1
:203740005A83FCF76BFDA37F002BFAD0164BDB7F002BF6D0FDF7E4FBFCF7CEFF0546FCF79D
:20376000CBFF401B0028B8BF4042B0F57A7FF6DBFDF7E4FAFCF7C0FF0546FCF7BDFF401BBB
:203780000028B8BF4042B0F57A7FF6DB72B6FCF723FD0B4B00221A600A4BC4F8583418684F
:2037A00038BD00BF003802408C05002000800008F8FF0308FCFF0308FF7F000800100240C2
:2037C00010E000E004800008024B13B1024800F005B8704700000000E9370008014600203F
:2037E0000246034600F018B838B5094D094C641BA41018BF05EB840505D0013C55F8043DBD
:203800009847002CF9D1BDE8384000F093B800BF483900084C390008F0B5274C85B02668CB
:203820000746D6F84841002C40D065681F2D1EDD224818B94FF0FF3005B0F0BD4FF4C8700E
:20384000039102920193AFF3008003990446029A019B0028EED0D6F84851002025606060BA
:203860000546C6F84841C4F88801C4F88C013FB96B1C00200235636044F8251005B0F0BDBC
:203880000126AE4004EB8500C0F88820D4F88821022F42EA0602C4F88821C0F80831E7D157
:2038A000D4F88C311E43C4F88C61E1E706F5A674C6F84841B9E700BF24390008000000008D
:2038C0003030313142313032005472696E616D69632D4576616C20287669727475616C20F6
:2038E000434F4D29005472696E616D6963204D6F74696F6E20436F6E74726F6C00544D430E
:203900004556414C0056435020436F6E6669670056435020496E7465726661636500000086
:203920004300000048010020F8B500BFF8BC08BC9E467047F8B500BFF8BC08BC9E467047DD
:20394000C9370008A901000885010008C03800081201000202000040D016E40700020102F2
:20396000030104030904000000C2010000000800730A0008810A0008DD0A0008C10A00088A
:20398000F90A0008150B0008310B0008650A0008670A0008690A00086B0A00086D0A000849
:2039A0006F0A0008710A00080A06000200000040010000008D0A0008910A00084D0B00080E
:2039C000950A0008990A0008000E2707000000000000000001020304060708090000000031
:2039E000010203040102030406070809A4000020E11E00082D1E0008E31D0008531D0008F7
:203A0000B51D0008371D0008211D0008631D0008711D00087F1D0008951D0008FF000000AF
:203A200009024300020100C03209040000010202010005240010010524010001042402029F
:203A40000524060001070582030800FF09040100020A0000000705010240000007058102A6
:203A600040000000852100085D2100089D20000800000000B91F0008D92100086D20000896
:203A8000F51F00080000000000000000E91F00080000000000000000340400209C040020E2
:203AA0000405002000000000000000000000000000000000000000000000000000000000DD
:203AC000000000000000000020390008000000000000000000000000000000000000000085
:203AE0000000000000000000000000000000000000000000000000000000000000000000C6
:203B00000000000000000000000000000000000000000000000000000000000000000000A5
:203B2000000000000000000000000000000000000000000000000000000000000100000084
:203B4000000000000E33CDAB34126DE6ECDE05000B00000000000000000000000000000039
:203B6000000000000000000000000000000000000000000000000000000000000000000045
:203B8000000000000000000000000000000000000000000000000000000000000000000025
:203BA000000000000000000000000000000000000000000000000000000000000000000005
:203BC0000000000000000000000000000000000000000000000000000000000000000000E5
:203BE0000000000000000000000000000000000000000000000000000000000000000000C5
:203C00000000000000000000000000000000000000000000000000000000000000000000A4
:203C2000000000000000000000000000000000000000000000000000000000000000000084
:203C4000000000000000000000000000000000000000000000000000000000000000000064
:203C6000000000000000000000000000000000000000000000000000000000000000000044
:203C8000000000000000000000000000000000000000000000000000000000000000000024
:203CA000000000000000000000000000000000000000000000000000000000000000000004
:203CC0000000000000000000000000000000000000000000000000000000000000000000E4
:203CE0000000000000000000000000000000000000000000000000000000000000000000C4
:203D00000000000000000000000000000000000000000000000000000000000000000000A3
:203D2000000000000000000000000000000000000000000000000000000000000000000083
:203D4000000000000000000000000000000000000000000000000000000000000000000063
:203D6000000000000000000000000000000000000000000000000000000000000000000043
:203D8000000000000000000000000000000000000000000000000000000000000000000023
:203DA000000000000000000000000000000000000000000000000000000000000000000003
:203DC0000000000000000000000000000000000000000000000000000000000000000000E3
:203DE0000000000000000000000000000000000000000000000000000000000000000000C3
:203E00000000000000000000000000000000000000000000000000000000000000000000A2
:203E2000000000000000000000000000000000000000000000000000000000000000000082
:203E4000000000000000000000000000000000000000000000000000000000000000000062
:203E6000000000000000000000000000000000000000000000000000000000000000000042
:203E8000000000000000000000000000000000000000000000000000000000000000000022
:203EA00000000000000000000000000000000000000000000000000000000000FFFFFFFF06
:203EC000FFFFFFFFFFFFFFFFFFFFFFFFFFFFFFFFFFFFFFFFFFFFFFFFFFFFFFFFFFFFFFFF02
:203EE000FFFFFFFFFFFFFFFFFFFFFFFFFFFFFFFFFFFFFFFFFFFFFFFFFFFFFFFFFFFFFFFFE2
:203F0000FFFFFFFFFFFFFFFFFFFFFFFFFFFFFFFFFFFFFFFFFFFFFFFFFFFFFFFFFFFFFFFFC1
:203F2000FFFFFFFFFFFFFFFFFFFFFFFFFFFFFFFFFFFFFFFFFFFFFFFFFFFFFFFFFFFFFFFFA1
:2080000000800120EDB40208955A0208975A0208995A02089B5A02089D5A02080000000023
:208020000000000000000000000000009F5A0208A15A020800000000A35A0208E58A0208B8
:2080400031B5020831B5020831B5020831B5020831B5020831B502084D4C0208A54C0208E2
:2080600031B5020831B5020831B5020831B5020831B5020831B5020831B5020831B5020880
:2080800031B5020831B5020831B5020831B5020831B5020831B5020831B5020831B5020860
:2080A00031B5020831B5020831B5020831B5020889EE010831B5020831B5020831B50208B0
:2080C00031B5020831B5020831B5020831B5020831B5020831B5020849A00208C99C02089E
:2080E00031B5020831B5020831B5020831B5020831B5020831B5020831B5020831B5020800
:2081000031B5020831B50208014D020831B5020831B5020831B5020831B5020831B5020877
:2081200031B5020831B5020831B5020831B5020831B5020831B5020831B5020831B50208BF
:2081400031B5020831B5020831B502083996020831B5020831B5020831B502085D9A0208A5
:2081600031B5020831B5020831B5020831B5020831B5020831B5020831B5020831B502087F
:2081800031B502080000000010B5054C237833B9044B13B10448AFF300800123237010BD4D
:2081A00018100020000000005CEA020808B5034B1BB103490348AFF3008008BD00000000D2
:2081C0001C1000205CEA020870470220704702207047704770470220704702207047022058
:2081E000704701207047002070470120704770477047022070477047704770477047836932
:208200001C4A10B5C3E981221B4B1C4A1C4C43661C4B1D49C0E90A23C0E90C43C3610362E3
:208220001A4B1B4A03651B4BC0E9164243651A4B0166C0E91232C0E910338363174BC263EB
:20824000C36600234367164B8166C0E91E33154BC0F88030144BC0F88430144BC0F8883084
:20826000134BC0F88C30134BC0F89030124BC0F8943010BDEB810008C9810008CB81000896
:20828000D7810008CF810008F1810008D3810008DF810008D5810008DB810008EF810008AE
:2082A000F3810008E3810008FB810008F7810008F9810008FD810008E7810008704700BFE4
:2082C00000220A480A4B80F8AC20C0F8A0206FF000414FF0FF3C1A800122C0E9291CC0F89C
:2082E000B03083F810229830FFF789BF9CC900203410002000236FF000414FF0FF3C064A75
:208300000648138082F81032C0E9031C826103758360FFF774BF00BF541200209CC90020C7
:2083200000231846054911F8012B02F003029A4002330E2B40EA0200F5D1704774140020A9
:208340000549431E063011F8012B02F0030203F8012F8342F7D1704774140020074B1A7811
:2083600002705A7842709A788270DA78C2701A7902715A7942719B7983717047741400208C
:20838000F8B50024084B094D094FDE6815F8011B7A6C33681059DB6901F003010434984762
:2083A0001C2CF3D1F8BD00BFC0E9020874140020000000200723064A013B00F0030113F015
:2083C000FF0302F8011B4FEA9000F5D1D8E700BF74140020014B586AECE700BF0000002010
:2083E0000549431E063013F8012F02F00302834201F8012BF7D1C3E7741400200278074B96
:208400001A7042785A7082789A70C278DA7002791A7142795A7182799A71B1E774140020F4
:208420000022024BC3F8A020704700BF9CC9002010B50348144617F0CBFB206010BD00BF14
:20844000B8C6002010B50F4C0146204617F02BFC002016F0ADFD6F21204617F0B9FBC0F34F
:208460000061002016F04AFE012016F0A1FD7F21204617F0ADFBBDE81040C0F30061012089
:2084800016F03CBEB8C60020014817F093BB00BFB8C60020012808B503D816F073FD0020EC
:2084A00008BD0820FCE7012808B503D816F048FD002008BD0820FCE70021F4E74942F2E790
:2084C000F1E701292DE9F04105461E46084600F21983CE2A0CD8A12A0CD81C2A6AD9332A57
:2084E00000F033818C2A00F03881322A00F025810425A3E0A23A2C2AFAD801A353F822F0D6
:20850000EF87000819880008438800086D880008EF8800082D890008478900087589000849
:208520009F890008C9890008F38900080B8A0008358A0008F1840008F1840008F184000852
:20854000F18400086D8A0008978A0008B18A0008F1840008F1840008C18A0008F184000869
:20856000F1840008F1840008F1840008F1840008F1840008F1840008F1840008F184000813
:20858000F1840008F1840008F1840008F1840008F1840008F1840008F1840008F1840008F3
:2085A000F1840008F1840008F1840008F1840008EB8A00081C2A9BD801A353F822F000BFD1
:2085C000358600084D8600085D8600086D860008798600088F8600089F860008CD8600086B
:2085E00001870008F1840008F1840008F1840008F1840008F1840008F1840008F184000880
:20860000F1840008F1840008F1840008F1840008F1840008F1840008F1840008F184000872
:20862000F1840008F1840008F1840008F1840008118700082DB916F04DFE30602846BDE8CC
:20864000F081316816F09EFC0025F7E715B916F033FEF2E7316816F05FFDF5E715B916F0E4
:2086600055FEEAE7316816F06BFCEDE7002D7FF43FAF16F03DFEE0E715B916F063FEDCE76E
:2086800031680029B8BF494216F0D6FDDCE715B916F04AFED1E7316816F058FDD4E72021B6
:2086A000814041F01004E4B22146AD4825B917F08FFAC0F30420C0E717F08AFA336820F49C
:2086C000F8521B0203F4F8531A4314E02021814041F01004E4B22146A14825B917F078FA1C
:2086E00000F01F00A9E717F073FA326820F01F0002F01F0202432146994817F05BFAA3E718
:20870000002D7FF4F5AE16F097FCC0F3001094E70C0144F06C04E4B22146914825B917F0D3
:2087200057FAC0F3804088E717F052FA336820F480229B0403F48023C6E715B916F01EFE8C
:208740007BE7197816F092FD7EE715B916F024FE73E7196816F09AFD76E755B9090141F018
:208760006C017F4801F0FC0117F032FAC0F3036063E71B68102B32D00ADC013B072B0ED84A
:20878000072B0CD8DFE803F014250B270B0B0B29802B2AD007DC202B23D0402B23D04FF0F1
:2087A000FF33336050E7B3F5807FF8D1002300E00823040144F06C04E4B233602146684836
:2087C00017F006FA336820F070621B0603F070637AE70723EDE70623EBE70523E9E70423B5
:2087E000E7E70323E5E70223E3E70123E1E70C0144F06C04E4B22146594825B917F0E8F9C9
:20880000C0F3C13019E717F0E3F9336820F4C032DB0303F4C03357E70C0144F06C04E4B2E3
:2088200021464F4825B917F0D3F9C0F3803004E717F0CEF9336820F480429B0303F48043A4
:2088400042E70C0144F06C04E4B22146444825B917F0BEF9C0F30030EFE617F0B9F933680D
:2088600020F480521B0303F480532DE70C0144F06C04E4B221463A4817F0AAF9214680460F
:2088800000F48047364885B927B117F0A1F9C0F3C310D2E617F09CF918F4006FC0F30213CB
:2088A00018BF43F008033360C8E647B117F090F9336820F4F062DB0103F4F06304E717F0C1
:2088C00087F9336820F070021B0103F070031A432146234817F06EF92146214817F078F994
:2088E000336820F400621B0203F40063ECE60C0144F06C04E4B22146194817F069F921463F
:2089000000F48047164835B9002FBED017F060F9C0F3021091E6002FC8D017F059F933683C
:2089200020F070021B0103F07003CDE60C0144F06C04E4B221460A48002D5ED117F048F9DC
:2089400000F00F0079E60C0144F06D04E4B2214603483DB917F03CF9C0F3C0306DE600BFD8
:20896000B8C6002017F034F9336820F40042DB039BB2A9E60C0144F06D04E4B22146624821
:2089800025B917F025F9C0F3413056E617F020F9336820F4C0425B0303F4C04394E60C01C4
:2089A00044F06D04E4B22146574825B917F010F9C0F3032041E617F00BF9336820F47062FF
:2089C0001B0203F470637FE60C0144F06D04E4B221464D4825B917F0FBF8C0F341102CE619
:2089E00017F0F6F8336820F060025B0103F060036AE60C0144F06D049BE717F0E9F83268BD
:208A000020F00F0002F00F0274E60C0144F06D04E4B221463C4825B917F0DAF8C0F30060DD
:208A20000BE617F0D5F8336820F080721B0603F0807349E60C0144F06D04E4B22146324875
:208A40005DB917F0C5F8031413F0400318BF6FF07F03C0F306401843EFE517F0B9F83368AC
:208A600020F4FE021B0403F4FE032DE60C0144F06C04E4B22146244825B917F0A9F8C0F365
:208A80004040DAE517F0A4F8336820F400325B0403F4003318E6002D7FF42AAD090141F0DA
:208AA0006F011948C9B217F093F8C0F30440C4E515B916F055FCC0E5316816F0C9FBC3E563
:208AC0000C0144F06C04E4B221460F4825B917F07FF8C0F34030B0E517F07AF8336820F455
:208AE00000525B0303F40053EEE5002D7FF400AD090141F06F010448C9B217F069F8C0F3CF
:208B000009009AE5082599E5B8C6002007B5019201AB02460120FFF7D4FC03B05DF804FB53
:208B2000134602460020CCE4014817F0A4B800BFB8C6002038B5002016F0DAFB08B10020FA
:208B400038BD012016F0D4FB04460028F7D10A4D0A4817F07DF80A4816F04EFC234620465A
:208B6000AA68296816F098FA01202346EA68696816F092FA0120E3E7A4140020B8C600201A
:208B8000A0860100022804BF0B4B93F8300130B90A4BDB681B685B69094A10691847012893
:208BA00009D1054B93F83031012B04D1034BDB681B689B69F0E770479CC90020C0E90208C0
:208BC000A414002070B50020FFF7DCFF0A4B0B4CDD6820692B689B6898472B68206A9B6898
:208BE00098472B68606A9B68984716F081FCBDE87040034B9B681847C0E90208A414002044
:208C0000780B00200346052B10B5084614460CD007D8023B022B06D816F0BEFB2060002069
:208C200010BD182BF8D00420FAE716F0CFFBF5E738B50D46044620B916F05AFB28602046FF
:208C400038BD0820FCE70346022B10B50846144610D0032B15D0012B16D10C4B0C4ADB683B
:208C6000106A1B685B6A9847003818BF01202060002010BD054B064ADB68506A1B685B6AD1
:208C8000F1E716F0D9F9F2E70420F2E7C0E90208A4140020012838B504460D4609D816F029
:208CA0000BFB2968014429602046BDE83840FFF7F1BB082038BD052803D8012803D80420DD
:208CC00070471828FBD1002010607047024B0846DB6A1146DB681847A41400202DE9F04192
:208CE000514C524F0121D4F8B020514B514816F093FFFE68504D736803F1CC022A6103F588
:208D00009E726A6203F5AC722A6203F5C872AA6003F5D67203F5BA706A6003F5E47203F527
:208D20000E73AB623368EA60DB68286098473368A868DB68984733686868DB689847336821
:208D4000E868DB68984733682869DB6898473368A86ADB6898473B69384803F11402EA620A
:208D6000AA6A9A6116F048FB0023AA681846296816F092F96968EA680023012016F08CF9F4
:208D8000D4F8B0302E4A0220C3F804222D4AC3F8082201221A802C4B3222C4F8BC302B4BAA
:208DA00084F8AC00C4F8B830294BC4F8B430294BC4F8C030284BC4F8D430284BC4F8D03051
:208DC000274BC4F8C430274BC4F8C830264BC4F8EC30264BC4F8E830254BC4F8F830254BF9
:208DE000C4F8F430244BC4F8F030244BC4F80431234BC4F800314FF48F73C4E92932214BD4
:208E0000C4F8FC30204BC4F81031204BC4F814311F4CFFF7B7FE63689847E3680021BDE8C5
:208E2000F0410020184700BF9CC90020C0E9020868B70208B8C60020A4140020A0860100C5
:208E4000358B0008298B0008A7840008C1840008BD840008B9840008218B00080D8B00082C
:208E600095840008958C0008898400083184000845840008478C0008318C0008858B00084D
:208E800021840008C58B0008B78C0008058C0008780B0020014B1046DB6B184700000020DF
:208EA000034B10B51B6C14469847206010BD00BF00000020062873B504460E467BD8404DDF
:208EC00068462B6B013C98472B46042C04D8DFE804F00866696C6F009DF8003000203360D0
:208EE0000BE09DF80120E978914208D19DF80200297B884203D10020306002B070BD1979CA
:208F0000914206D19DF80200597B884201D10123E4E75979914206D19DF80200997B8842C0
:208F200001D10223DAE79979914206D19DF80200D97B884201D10323D0E7D979914206D15D
:208F40009DF80200197C884201D10423C6E7597A914206D19DF80200997C884201D1052388
:208F6000BCE7997A914206D19DF80200D97C884201D10623B2E7197A914206D19DF8020073
:208F8000597C884201D10723A8E7D97A914214D19DF802201B7D9A420FD108239EE79DF84C
:208FA00003309BE79DF8043098E79DF8053095E79DF8063092E704209FE710209DE700BF0D
:208FC0000000002007B5034B68461B6B984703B05DF804FB0000002070B50020FFF7F2FF01
:208FE0001E4B1F4CDD68206B2B689B6898472B68E06A9B6898472B68E0689B6898472B6849
:20900000A0689B6898472B6860689B6898472B6820689B6898472B68A0699B6898472B681B
:20902000E0699B6898472B68A06A9B6898472B6860699B6898472B68206A9B6898472B68B6
:20904000606A9B6898472B6820699B68984716F04FFABDE87040034B9B681847C0E902085F
:20906000E0140020780B0020002015F0A1BF10B5044618B915F086FF204610BD0820FCE70C
:2090800010B5044618B915F05BFF204610BD0820FCE70021F4E74942F2E7F1E7062873B5C5
:2090A00005460C465DD8022903D901285BD10F2959DC2E4E6846336B98473346052D06D8E5
:2090C000DFE805F0030B4346494C8DF800406846DB6A9847002002B070BD082CF7D8DFE848
:2090E00004F0050C11161B20252A2F00F2788DF80120327B8DF80220E9E732798DF8012006
:20910000727BF7E772798DF80120B27BF2E7B2798DF80120F27BEDE7F2798DF80120327C1C
:20912000E8E7727A8DF80120B27CE3E7B27A8DF80120F27CDEE7327A8DF80120727CD9E7D1
:20914000F27A8DF80120327DD4E78DF80340BEE78DF80440BBE78DF80540B8E78DF8064087
:20916000B5E70420B7E71020B5E700BF0000002038B50446154608461CB1012C06D0042012
:2091800038BD15F059FF28600020F9E7094B0A4DDC680A4B606800F5BA70D8616B6C586101
:2091A0002368DB6898476A6C236850699B699847EAE700BFC0E9020800000020E01400208E
:2091C00038B50D46044648B916F076F8296801442960204615F0D6FE204638BD0820FCE78C
:2091E00038B51546002953D113280DD813280FD8DFE800F010161A1E22260E0E0E2A0E0ECB
:209200002E39404040404040322839D033283BD0042004E0002016F05DF82860002038BD7E
:20922000002016F049F8F8E7002016F06FF8F4E7002016F05DF8F0E7002016F083F8ECE7BA
:20924000002016F071F8E8E7124B9B8E2B60E5E7114B104ADB68D06A1B685B6A9847003841
:2092600018BF0120D9E70C4B0A4ADB68106B1B685B6AF3E70E382946C0B2FFF71BFECDE7C1
:20928000084616F07BF8C8E7084616F085F8C4E70820C4E7E0140020C0E902081FB50C461C
:2092A000019200297CD113280DD8132811D8DFE800F0121A1F10242C1010103110444A57A9
:2092C00060606060606033285CD08C285FD0322853D0042404E00020019915F053FE002427
:2092E000204604B010BD0020019915F015FFF6E70020019915F024FEF1E70199002000293B
:20930000B8BF494215F098FFE9E70020019915F01DFFE4E740F699230198984242D8224B4D
:2093200080B2988621F0CAFC204921F0D3FD204B0146DB6800209847D1E705200199FFF75B
:20934000ADFE0446CCE71B4B174ADB68019C1B68D06A14B15B699847C1E79B699847BFE768
:2093600042F2107301989842B3D821F0ABFC1249DBE70E380199C0B2E1E72046D1B215F05B
:2093800075FFADE71146204615F080FFA8E7012001A9FFF78FFD094B04469B6B02A8DDE796
:2093A00008249DE710249BE7E014002000A02945780B0020C0E9020800401C46000000200D
:2093C000754B2DE9F041DE68744C7068002500F50073236300F5F273E36200F52A73E36021
:2093E00000F53173A36000F52373636000F50E73236000F55B73A36100F55473E36100F1D2
:20940000CC03A36200F5C873636100F56973236200F570736362336800F5BA70DB68206113
:20942000984733686069DB6898473368206BDB6898473368E06ADB6898473368206A1B69CF
:2094400098473368606A1B699847554AE1689046536C1960A1685960616899602168D96029
:20946000A1691961E1695961A16A9961D8F8442033685059DB689847D8F84420336850594D
:209480009B69043598471C2DF0D10027454D4FF40030D5F8B0301F7015F0AEFFD4E90412B9
:2094A0003B46384615F0F8FD44F62061384615F0C3FE46F2A811384615F048FE01223A4B52
:2094C00085F8AC20C5F8BC30384BC5F8B830384BC5F8B430374BC5F8C030374BC5F8D430DC
:2094E000364BC5F8D030364BC5F8C430354BC5F8C830354BC5F8EC30344BC5F8E830344B9B
:20950000C5F8F430334BC5F8F830334BC5F80431324BC5F8FC300225236B197C18685D7496
:209520001CF0A5FA4FF4FA63A38633682C4E206B1B68984773689847A08E21F0BFFB294990
:2095400021F0C8FCF3680146384698472846FFF739FD384615F0CCFE10B1234B9B78C3B19A
:20956000D8F8283098474FF4003015F045FFD4E904120023184615F08FFD44F62061002068
:2095800015F05AFEBDE8F04146F2A811002015F0DDBDBDE8F08100BFC0E90208E01400204C
:2095A000000000209CC90020819000089B9000089790000893900008E19100089D920008AF
:2095C0006F900008C1910008958E0008A18E00087191000869900008C58F0008D98F0008F1
:2095E000780B002000A02945880000201B4B70B5DD681B4C2B68A0685B6998472B68206882
:209600009B6898472B6860689B6898472B68206A9B6898472B68606A9B6898472B68E06812
:209620009B6898472B6820699B6898472B6860699B6898472B68A0699B6898472B68E069B2
:209640009B6898472B68A0689B68984715F050FFBDE87040034B9B68184700BFC0E90208E0
:2096600024150020780B002010B51446062805D8DFE800F0062A283944495300042010BDAB
:2096800044F6206314689C4253D842F210712A4B2A4ADB688C421B6894BF00210121106A46
:2096A000DB69984742F21173B4FBF3F003FB104021F004FB224921F00DFC224B0146DB6863
:2096C000002098470020DAE71B4B2468DA68D2E9003000F507701CB10021DB699847F1E736
:2096E0009B689847EEE7144B1168DB68134A1B68003918BF0121DB691069EFE7084615F0A0
:209700009BFC2060DEE70C4B0C4ADB6858681B6800F5BA70DB681061E3E7074B074ADB68B7
:2097200058681B6800F224715B69D16000F55470D7E71020A3E700BFC0E90208241500206E
:2097400000401C46780B002010B50348144616F02FFB206010BD00BFB8C6002010B5094C66
:209760000146204616F0C5FB002015F021FC6F21204616F01DFBBDE81040C0F300610020F7
:2097800015F0BCBCB8C60020014816F003BB00BFB8C6002010B5044618B915F0F3FB20460B
:2097A00010BD0820FCE710B5044618B915F0C8FB204610BD0820FCE70021F4E74942F2E78B
:2097C000F1E770B504461D46002940F04285332A00F28280332A00F24285DFE812F085000A
:2097E00090009B00A600C700D500E000F8000F011801400540054005400540054005400518
:209800004005400540054005320140053C01610140056F0187019F01B901400540054005B7
:209820004005400540054005400540054005400540054005400540054005400540054005D8
:209840004005D201DD018C3A422A00F20585DFE812F0AE01030503050305030503050305BC
:20986000030503050305030503050305030503050305030503050305030503050305050269
:209880001D0235024D02A802ED0204031B0333034B0366037D039503030503050305030540
:2098A000B403CC03D703E30303050804200438045F048704030503059D04BC04030503057F
:2098C000030503050305030503050305030503050305DC040305F60402F17403DBB2422BFA
:2098E000B1D90424204670BD18B915F0F3FC2860F8E70020296815F045FB0024F2E718B933
:2099000015F0DAFC2860EDE70020296815F004FC0024E7E718B915F0F9FC2860E2E700202C
:20992000296815F00DFB0024DCE7002840F09A8415F024FD18B915F0DBFC2860D2E72046B2
:2099400015F02AFD12210646A64816F031FAC0F313027A20D317A6FB000121F013FC00F13E
:209960001303262B98BF00202860BBE718B915F0E9FC2860B6E7296800200029B8BF494223
:2099800015F05AFC0024ADE718B915F0CDFC2860A8E70020296815F0D9FB0024A2E7102196
:2099A00090482CB916F004FAC0F30420286099E716F0FEF92B6820F4F8521B0203F4F853BA
:2099C000102188481A4316F0E5F900248AE7102184482CB916F0ECF900F01F00286081E7E4
:2099E00016F0E6F92A6820F01F0002F01F02024310217C4816F0CEF9002473E7002840F0D1
:209A0000348415F019FBC0F3001028606AE718B9754B1B8D2B6065E740F69923286898426D
:209A200000F22684704B80B2188521F047F96F4921F050FA6E4B0146DB6800209847002436
:209A400050E7002800F0178411212A68654816F0A1F9002446E780B91521624816F0A8F9FA
:209A6000002808BF01204FF0807393FBF0F0614B9842D4BF28602B6034E72B684FF080722B
:209A8000002B08BF012392FBF3F25A4B15219A42A8BF1A4653482A6016F07CF9002421E7F4
:209AA00028B933214F4816F083F928601AE733212A684C4816F06EF9002413E76C214948AC
:209AC0002CB916F075F9C0F3804028600AE716F06FF92B6820F480229B0403F480236C21C4
:209AE00040481A4316F056F90024FBE66C213D482CB916F05DF9C0F3C0402860F2E616F0BB
:209B000057F92B6820F40022DB0403F400236C2134481A4316F03EF90024E3E638B901466B
:209B2000304816F045F9C0F340002860DAE600212C4816F03DF92B6820F002025B0003F068
:209B40000203002127481A4316F024F90024C9E6002840F0938315F01FFC122106462148A7
:209B600016F026F9C0F313027A20D317A6FB000121F008FB00F11303262B98BF0020286067
:209B8000B0E618B915F0FAFB2860ABE60020297815F06CFB0024A5E618B915F0FDFB286019
:209BA000A0E60020296815F071FB00249AE654B96C210C4816F0FCF8C0F303634FF4807025
:209BC000184128608EE62B68102B3FD014DC013B072B18D8072B16D8DFE803F01F32153491
:209BE00015151536B8C600202415002000A02945780B0020FFFF0F00802B2DD008DC202B64
:209C000026D0402B26D04FF0FF3310242B6069E6B3F5807FF7D1002300E008236C212B60B9
:209C2000B64816F0C5F82B6820F070621B0603F070636C21B1481A4316F0ACF8002451E61F
:209C40000723EBE70623E9E70523E7E70423E5E70323E3E70223E1E70123DFE76C21A748E3
:209C60002CB916F0A5F8C0F3C13028603AE616F09FF82B6820F4C032DB0303F4C0336C2185
:209C80009E481A4316F086F800242BE66C219B482CB916F08DF8C0F38030286022E616F0EF
:209CA00087F82B6820F480429B0303F480436C2192481A4316F06EF8002413E66C218F48B3
:209CC0002CB916F075F8C0F3003028600AE616F06FF82B6820F480521B0303F480536C2176
:209CE00086481A4316F056F80024FBE56C218348FCB916F05DF810F4804F4FF06C017F4833
:209D000005D016F055F8C0F3C3102860EAE516F04FF86C210646794816F04AF83105C0F326
:209D2000021302D400242B60DCE543F008032B60D8E516F03DF810F480444FF06C016F48DC
:209D40000ED016F035F82B6820F4F062DB0103F4F0636C2169481A4316F01CF80024C1E554
:209D600016F026F86C21654816F022F82B6820F400621B0203F400631A436C215F4816F04E
:209D800009F86C215D4816F013F82B6820F070021B0103F070036C2158481A4315F0FAFF60
:209DA000A0E56C215548E4B916F002F810F4804F4FF06C01514805D015F0FAFFC0F30210A7
:209DC00028608FE515F0F4FF6C2106464B4815F0EFFF3205C0F3C313A4D543F008032B602E
:209DE00080E515F0E5FF10F480444FF06C0143480ED015F0DDFF2B6820F070021B0103F033
:209E000070036C213D481A4315F0C4FF002469E515F0CEFF2B6820F4F062DB0103F4F06335
:209E20006C2136481A4315F0B5FF5BE56C2133482CB915F0BDFF00F00F00286052E515F050
:209E4000B7FF2A6820F00F0002F00F0202436C212A4815F09FFF002444E56D2127482CB982
:209E600015F0A6FFC0F3C03028603BE515F0A0FF2B6820F40042DB039BB26D211F481A43E3
:209E800015F088FF00242DE56D211C482CB915F08FFFC0F34130286024E515F089FF2B68C1
:209EA00020F4C0425B0303F4C0436D2113481A4315F070FF002415E56D2110482CB915F08C
:209EC00077FFC0F3032028600CE515F071FF2B6820F470621B0203F470636D2107481A43AE
:209EE00015F058FF0024FDE46D21044844B915F05FFFC0F341102860F4E400BFB8C6002006
:209F000015F056FF2B6820F060025B0103F060036D21B3481A4315F03DFF0024E2E46D2191
:209F2000AF482CB915F044FF00F00F002860D9E415F03EFF2A6820F00F0002F00F0202437E
:209F40006D21A74815F026FF0024CBE46D21A4482CB915F02DFFC0F300602860C2E415F0B1
:209F600027FF2B6820F080721B0603F080736D219B481A4315F00EFF0024B3E46D21984816
:209F800064B915F015FF031413F0400318BF6FF07F03C0F3064018432860A3E415F008FF07
:209FA0002B6820F4FE021B0403F4FE036D218C481A4315F0EFFE002494E46C2188482CB954
:209FC00015F0F6FEC0F3404028608BE415F0F0FE2B6820F400325B0403F400336C218048B4
:209FE0001A4315F0D7FE00247CE4002C40F049816F217B4815F0DCFEC0F30440286071E47A
:20A0000024B9204615F0ACF928606BE40020296815F01EF9002465E484B91421704815F013
:20A02000C7FE002808BF01204FF0807393FBF0F06C4B9842D4BF28602B6053E42B684FF06B
:20A040008072002B08BF012392FBF3F2654B14219A42A8BF1A4662482A6015F09BFE002408
:20A0600040E46C215E482CB915F0A2FEC0F34030286037E415F09CFE2B6820F400525B0343
:20A0800003F400536C2156481A4315F083FE002428E46C2152482CB915F08AFEC0F3035099
:20A0A00028601FE415F084FE2B6820F470021B0503F470036C214A481A4315F06BFE0024DD
:20A0C00010E48CB91321464815F072FE002808BF01204FF0807393FBF0F0424B9842D4BF66
:20A0E00028602B60FFF7FEBB2B684FF08072002B08BF012392FBF3F23A4B13219A42A8BF56
:20A100001A4637482A6015F045FE0024FFF7EABB7021334834B915F04BFEC0F30720286026
:20A12000FFF7E0BB15F044FE2B6820F47F421B029BB21A4370212A4815F02CFE0021284855
:20A1400015F036FE2B6820F00402002B18BF0423002123481A4315F01DFE0024FFF7C2BB54
:20A1600070211F482CB915F023FEC0B22860FFF7B9BB15F01DFE2A7820F0FF0002437021D1
:20A18000174815F007FE0024FFF7ACBB44B97021134815F00DFEC0F301402860FFF7A2BB0D
:20A1A0002B68032B70D870210D4815F001FE2B6820F440321B0403F44033702108481A43CC
:20A1C00015F0E8FD0024FFF78DBB702104485CB915F0EEFDC0F380402860FFF783BB00BF63
:20A1E000B8C60020FFFF0F0015F0E2FD2B6820F48022002B18BF4FF48023702125481A4344
:20A2000015F0C8FD0024FFF76DBB7021214834B915F0CEFDC0F301502860FFF763BB15F0D6
:20A22000C7FD2B6820F440121B0503F44013702118481A4315F0AEFD0024FFF753BB34BBE2
:20A240006F21144815F0B4FDC0F309002860FFF749BB0824FFF746BB0424FFF743BB0424B7
:20A26000FFF740BB0424FFF73DBB0424FFF73ABB1024FFF737BB0424FFF734BB0424FFF77D
:20A2800031BB0424FFF72EBB1024FFF72BBB0424FFF728BBB8C6002007B5019201AB0246D9
:20A2A0000120FFF78EFA03B05DF804FB134602460020FFF786BA014815F003BEB8C6002054
:20A2C00008B5002015F014F810B1094B987868B1084815F0DFFD4FF4003015F08DF8002301
:20A2E0000549184606C914F0D7FE012008BD00BF88000020B8C6002024150020022804BFD9
:20A300000B4B93F8300130B90A4BDB681B685B69094A90681847012809D1054B93F830317A
:20A32000012B04D1034BDB681B689B69F0E770479CC90020C0E90208241500200346052B6C
:20A3400010B5084614460CD007D8023B022B06D815F022F82060002010BD182BF8D00420D2
:20A36000FAE715F033F8F5E738B50D46044620B914F0BEFF2860204638BD0820FCE70129B4
:20A3800010B5044608D17021044A15F003FD2046BDE8104015F054BD10BD00BFC804050023
:20A3A00038B50D46044648B914F086FF296801442960204614F0E6FD204638BD0820FCE777
:20A3C000052803D8012803D8042070471828FBD1002010607047054B08465B6F114603B1D0
:20A3E0001847034B1B68DB68FAE700BF9CC9002048C900202DE9F0416E4D6F4FD5F8B02037
:20A4000038466E4BDFF81882012115F0FDFC6C49384615F06AFDD8F80C606A4C736803F114
:20A42000CC02A26003F5BA72226003F5C872626003F5F272226203F50072626203F55472E6
:20A44000E26003F55B7203F56970226103F5627203F57073E361336862611B69A0619847F4
:20A460003368E0691B699847336860691B69984733682068DB68984733686068DB68984704
:20A480003368A068DB68984733682069DB6898473368E068DB6898473368606ADB68984725
:20A4A0003368206ADB6898473368206A9B699847336860699B6998473368E0689B69984740
:20A4C000D8F81020404B02F11401196073684FF4003003F50E73936114F08EFFD4E9001255
:20A4E0000023184614F0D8FDD5F8B030374AC5F89870C3F80422364A3221C3F80822012253
:20A500001A80344B85F8AC20C5F8BC30324BC5F8B830324BC5F8B430314BC5F8C030314B4B
:20A52000C5F8D430304BC5F8D030304BC5F8C4302F4BC5F8C8302F4BC5F8EC302E4BC5F83E
:20A54000E8302E4BC5F8F8302D4BC5F8F4302D4BC5F8F0302C4BC5F804314FF4F073C5E91A
:20A5600029312A4BC5F8FC30294BC5F81031294BC5F814310225636A197C18685D741BF056
:20A5800076FA4FF4FA6323853368234E606A1B68984773689847208D20F090FB1F4920F051
:20A5A00099FCF3680146002098472846BDE8F041A4E600BF9CC90020B8C6002068B902088A
:20A5C0007FA300082415002048C90020C1A20008B7A20008A7970008C1970008BD970008F9
:20A5E000B9970008ADA2000899A2000895970008A1A3000889970008499700085D970008DD
:20A600006996000869A30008FDA20008ED950008C1A300083DA30008780B002000A02945E9
:20A62000C0E9020838B5184B184CDD6820682B685B6998472B6860689B6898472B68A068D8
:20A640009B6898472B68E0689B6898472B6820699B6898472B6860699B6898472B68A06983
:20A660009B6898472B68E0699B6898472B68206A9B68984714F03CFF054B9B6898470023A7
:20A6800084F8243038BD00BFC0E902085C150020780B002010B50348144615F0AFFC2060B5
:20A6A00010BD00BFB8C60020014815F099BC00BFB8C6002010B5044618B914F063FC2046C7
:20A6C00010BD0820FCE710B5044618B914F038FC204610BD0820FCE70021F4E74942F2E7EC
:20A6E000F1E770B504461D46002940F02185332A00F28280332A00F22185DFE812F085001D
:20A7000090009B00A600C700D500E000F8000F011F051F051F051F051F051F051F051F05C4
:20A720001F051F051F051F0518011F05220147011F0555016D011F0585011F051F051F05E3
:20A740001F051F059E011F051F051F051F051F051F051F051F051F051F051F051F051F053E
:20A760001F05B201D7018C3A422A00F2E484DFE812F0A801E204E204E204E204E204E204C8
:20A78000E204E204E204E204E204E204E204E204E204E204E204E204E204E204E204FF013F
:20A7A00017022F024702A202E702FE0215032D034503600377038F03E204E204E204E204E2
:20A7C000AE03C603D103DD03E2040204E2041A043F046604E204E2047C049B04E204E204F7
:20A7E000E204E204E204E204E204E204E204E204E204B604E204D50402F17403DBB2422B66
:20A80000B1D90424204670BD18B914F063FD2860F8E70020296814F0B5FB0024F2E718B924
:20A8200014F04AFD2860EDE70020296814F074FC0024E7E718B914F069FD2860E2E70020AE
:20A84000296814F07DFB0024DCE7002840F0798414F094FD18B914F04BFD2860D2E7204656
:20A8600014F09AFD12210646A94815F0C7FBC0F313027A20D317A6FB000120F083FC00F198
:20A880001303262B98BF00202860BBE718B914F059FD2860B6E7296800200029B8BF494284
:20A8A00014F0CAFC0024ADE718B914F03DFD2860A8E70020296814F049FC0024A2E7102118
:20A8C00093482CB915F09AFBC0F30420286099E715F094FB2B6820F4F8521B0203F4F8535B
:20A8E00010218B481A4315F07BFB00248AE7102187482CB915F082FB00F01F00286081E781
:20A9000015F07CFB2A6820F01F0002F01F02024310217F4815F064FB002473E7002840F070
:20A92000138414F089FBC0F3001028606AE7002800F00D8411212A68754815F051FB0024BD
:20A9400060E780B91521724815F058FB002808BF01204FF0807393FBF0F06E4B9842D4BF59
:20A9600028602B604EE72B684FF08072002B08BF012392FBF3F2674B15219A42A8BF1A46B8
:20A9800063482A6015F02CFB00243BE728B933215F4815F033FB286034E733212A685C48D4
:20A9A00015F01EFB00242DE76C2159482CB915F025FBC0F38040286024E715F01FFB2B6851
:20A9C00020F480229B0403F480236C2150481A4315F006FB002415E76C214D482CB915F0D4
